Coinbase_transaction

	extranonce1 - cdd9016a
	extranonce2_size  - 8 bytes

	job_id : 6485163800078efa
	prevhash : 99e20be3df720be432cd5473a300632cc525baba000046860000000000000000
	coinb1 : 01000000010000000000000000000000000000000000000000000000000000000000000000ffffffff3503987a0c0004b8d25c6504bf8f770a0c

	coinb2 : 0a636b706f6f6c112f736f6c6f2e636b706f6f6c2e6f72672fffffffff039ab8512a00000000160014960851c004baa3fe1d55e5c298c327e07c09683aaa18dd000000000016001451ed61d2f6aa260cc72cdf743e4e436a82c010270000000000000000266a24aa21a9edbbfff892b8893699a7e149a7fa04fd292950e044ce2441d2c4e5a03fafdef2ca00000000



	0014960851c004baa3fe1d55e5c298c327e07c09683a

	merkle_branch : af3b99e36440ea30cc997a80443ed0cd557b12e7feef73ac667e63c7aa16ce29,594f3938e9d2333251a3990f6db6c2c8dca81b66498c7f18e0e8f801a1a224c8,a93e66efc39607556ecd039ac7a41b0462ca3a93571bf5e6dc9f060219dfa1d2,3ba78b1e5b26c7c33656d6ef31854fbbe58c918702065501b5332ecbced1a48f,9bb2744919316088008fa927d267cc909c53606d530932b08eb5f0fb46030413,ca8a53ada47c83925429acd33fd9eb6324543d174fbf955e31da342d00304ded,c79255d666b9ca317cd20327cad372c118f17bb20833dbb3362385f07c544ff2,c7a833511bb4ead4fe8fe8b93088d8dd6e8c5d75de7e9bef859adf9e1da7de75,0e191967c4a80a43c230329af19e26ecb4d9a6e23ddae49a1ade486455c0072f,dc226e4c3bcc304704348f374b1ca6de178c1099eafe157f55eca6b8ba1efcd0,47d120bada545b5421e1d9fe6036fe887ecddcab3315998c79122c25675d1860,d44c0f1d5103da09dd411c43a26eb21e3680a4e8f3a6644685a807eb66119527

	version : 20000000
	nbits : 17045a12
	ntime : 655cd2b8

	clean_jobs : True
	target : 000000000000000000045a120000000000000000000000000000000000000000
	extranonce2 : 00000000ac353263

	scriptsig : 0004b8d25c6504bf8f770a0ccdd9016a00000000ac3532630a636b706f6f6c112f736f6c6f2e636b706f6f6c2e6f72672f



	coinbase value : 01000000010000000000000000000000000000000000000000000000000000000000000000ffffffff3503987a0c0004b8d25c6504bf8f770a0ccdd9016a00000000ac3532630a636b706f6f6c112f736f6c6f2e636b706f6f6c2e6f72672fffffffff039ab8512a00000000160014960851c004baa3fe1d55e5c298c327e07c09683aaa18dd000000000016001451ed61d2f6aa260cc72cdf743e4e436a82c010270000000000000000266a24aa21a9edbbfff892b8893699a7e149a7fa04fd292950e044ce2441d2c4e5a03fafdef2ca00000000
	160014960851c004baa3fe1d55e5c298c327e07c0968
	01000000010000000000000000000000000000000000000000000000000000000000000000ffffffff3503a2810c0004b2e16c65043e8483170c1433546a00000000a3565c5a0a636b706f6f6c112f736f6c6f2e636b706f6f6c2e6f72672fffffffff0305f1812900000000160014960851c004baa3fe1d55e5c298c327e07c09683a1fdbd8000000000016001451ed61d2f6aa260cc72cdf743e4e436a82c010270000000000000000266a24aa21a9ed34abc6022059f2bc629303cb3303c57316d7f5f9f58ce32ca548a629058c90c100000000

	160014960851c004baa3fe1d55e5c298c327e07c09683a
	16001451ed61d2f6aa260cc72cdf743e4e436a82c01027

	01000000010000000000000000000000000000000000000000000000000000000000000000ffffffff3503bd810c0004b3126d6504944081100c6007556a00000000b1d17f4b0a636b706f6f6c112f736f6c6f2e636b706f6f6c2e6f72672fffffffff0336afbe27000000001976a9147a28a03d34bf51169f38875640a9b07fa8a0687688ac88a5cf000000000016001451ed61d2f6aa260cc72cdf743e4e436a82c010270000000000000000266a24aa21a9ed3315ce5cb86c77154fa270597f5efe36e62bc562b3a569088ab8d2784d6f4df500000000

1976a9147a28a03d34bf51169f38875640a9b07fa8a0687688ac
51ed61d2f6aa260cc72cdf743e4e436a82c01027

Coinbase transaction example

	coinbase value - 01000000010000000000000000000000000000000000000000000000000000000000000000ffffffff1d030f8d13049faa805a063538706f6f6c0c00010000fe22030000000000ffffffff015341cb04000000001976a914f11298ce777cb5db5c09250cad4eb856b1e366ef88ac00000000

	Hex value  Name and Description

	01000000   version - Transaction version 1

	01         tx_in_count - 1 transaction input

	0000000000000000000000000000000000000000000000000000000000000000 - outpoint txid - fake transaction ID for coinbase transaction

	ffffffff   outpoint index - fake index

	1d         script bytes - The height and coinbase script has 29 bytes.

	030f8d13   height - 0x03-byte little-endian integer: 0x0f8d13 = 1281295

	049faa805a063538706f6f6c0c00010000fe22030000000000 - coinbase script - Arbitrary data entered by the miner

	ffffffff   sequence - End of this input

	01         tx_out_count - 1 transaction output

	5341cb0400000000 - Amount of the first output in little-endian integer format: 80429395 Satoshis = 0.80429395 BTC

	19         script bytes - The pubkey script has 25 bytes

	76a914f11298ce777cb5db5c09250cad4eb856b1e366ef88ac - pubkey script - Represents the account address of the miner

	00000000   lock_time - It should be a reference to timestamp or block height



010000000001010000000000000000000000000000000000000000000000000000000000000000ffffffff4b03a0d909fabe6d6da46f55f209ae99b83d01196263c7ef18a223cd2d79260b4efb155f962619960b01000000000000000165010057d9f7c82c00000000000075ae4f83052f736c7573682f000000000435bda32b000000001976a9147c154ed1dc59609e3d26abb2df2ea3d587cd8c4188ac00000000000000002c6a4c2952534b424c4f434b3a40777a5f1de0727bb1bced1b8bc51927b116a43aa8f7bd279550862e00286ba60000000000000000296a4c266a24b9e11b6db57eacad1470f16a4353a4a351aab537f3d2a54b59c4d1f3e384bee1e4a783fc0000000000000000266a24aa21a9edc44cc85fe716fa85c86b15db56c652a06435989d25f7d0c8e267bd593046af010120000000000000000000000000000000000000000000000000000000000000000000000000

02000000
00
01
01
0000000000000000000000000000000000000000000000000000000000000000
ffffffff
31
0301810c04ad866b652f466f756e6472792055534120506f6f6c202364726f70676f6c642f08d94e280000000000000000
00000000
02
dd1d5c2900000000
16
001435f6de260c9f3bdee47524c473a6016c0c055cb9
0000000000000000
26
6a24aa21a9ed91db5bd4bfa1d56175513c620bfad21208e671dba26ff20d96f4538d3e2c8a47
01
20
0000000000000000000000000000000000000000000000000000000000000000
00000000

020000000001010000000000000000000000000000000000000000000000000000000000000000ffffffff310301810c04ad866b652f466f756e6472792055534120506f6f6c202364726f70676f6c642f08d94e280000000000000000ffffffff02dd1d5c290000000016001435f6de260c9f3bdee47524c473a6016c0c055cb90000000000000000266a24aa21a9ed91db5bd4bfa1d56175513c620bfad21208e671dba26ff20d96f4538d3e2c8a470120000000000000000000000000000000000000000000000000000000000000000000000000


01000000
00
01
01
0000000000000000000000000000000000000000000000000000000000000000
ffffffff
45
03751908fabe6d6d25add63c0baba3dde2af19287f9668a5b87d828a5819b495825088768eeaa994010000000000000029650701dfd1403f5801005a390f2f736c7573682f
ffffffff
03
0714444b00000000
19
76a9147c154ed1dc59609e3d26abb2df2ea3d587cd8c4188ac
0000000000000000
2c
6a4c2952534b424c4f434b3a3605f4ac27551897a5ab0ab28bd42bf6aa31a66dfdb17a8ddc37ad439f8627eb
0000000000000000
26
6a24aa21a9ed16afbbcf8595f5592fa40abe4ffa7a0d528ef30bd57922ed70d19212ab7cd53f
01
20
0000000000000000000000000000000000000000000000000000000000000000
00000000

010000000001010000000000000000000000000000000000000000000000000000000000000000ffffffff4503751908fabe6d6d25add63c0baba3dde2af19287f9668a5b87d828a5819b495825088768eeaa994010000000000000029650701dfd1403f5801005a390f2f736c7573682f00000000030714444b000000001976a9147c154ed1dc59609e3d26abb2df2ea3d587cd8c4188ac00000000000000002c6a4c2952534b424c4f434b3a3605f4ac27551897a5ab0ab28bd42bf6aa31a66dfdb17a8ddc37ad439f8627eb0000000000000000266a24aa21a9ed16afbbcf8595f5592fa40abe4ffa7a0d528ef30bd57922ed70d19212ab7cd53f0120000000000000000000000000000000000000000000000000000000000000000000000000


01000000010000000000000000000000000000000000000000000000000000000000000000ffffffff4b03a0d909fabe6d6da46f55f209ae99b83d01196263c7ef18a223cd2d79260b4efb155f962619960b01000000000000000165010057d9f7c82c00000000000075ae4f83052f736c7573682f000000000435bda32b000000001976a9147c154ed1dc59609e3d26abb2df2ea3d587cd8c4188ac00000000000000002c6a4c2952534b424c4f434b3a40777a5f1de0727bb1bced1b8bc51927b116a43aa8f7bd279550862e00286ba60000000000000000296a4c266a24b9e11b6db57eacad1470f16a4353a4a351aab537f3d2a54b59c4d1f3e384bee1e4a783fc0000000000000000266a24aa21a9edc44cc85fe716fa85c86b15db56c652a06435989d25f7d0c8e267bd593046af0100000000


03a0d909fabe6d6da46f55f209ae99b83d01196263c7ef18a223cd2d79260b4efb155f962619960b01000000000000000165010057d9f7c82c00000000000075ae4f83052f736c7573682f

fabe6d6da46f55f29ae99b83d1196263c7ef18a223cd2d7926b4efb155f96261996b1165157d9f7c82c75ae4f8352f736c7573682f

"address": "1CK6KHY6MHgYvmRQ4PAafKYDrg1ejbH1cE",
bc1qjcy9rsqyh23lu824uhpf3se8up7qj6p6z5kg05
"pkscript": "76a9147c154ed1dc59609e3d26abb2df2ea3d587cd8c4188ac",
7c154ed1dc59609e3d26abb2df2ea3d587cd8c41

0014960851c004baa3fe1d55e5c298c327e07c09683a



a914584419b35d5c081083110d42afb56103949e532a87
